{
  "contractName": "Trasaction",
  "abi": [
    {
      "anonymous": false,
      "inputs": [
        {
          "indexed": false,
          "internalType": "address",
          "name": "from",
          "type": "address"
        },
        {
          "indexed": false,
          "internalType": "address",
          "name": "to",
          "type": "address"
        },
        {
          "indexed": false,
          "internalType": "string",
          "name": "note",
          "type": "string"
        },
        {
          "indexed": false,
          "internalType": "uint256",
          "name": "timestamp",
          "type": "uint256"
        }
      ],
      "name": "Transfer",
      "type": "event"
    },
    {
      "inputs": [
        {
          "internalType": "uint256",
          "name": "",
          "type": "uint256"
        }
      ],
      "name": "transactionsList",
      "outputs": [
        {
          "internalType": "address",
          "name": "senderAddress",
          "type": "address"
        },
        {
          "internalType": "address",
          "name": "ReceiverAddress",
          "type": "address"
        },
        {
          "internalType": "uint256",
          "name": "Amount",
          "type": "uint256"
        },
        {
          "internalType": "uint256",
          "name": "timestamp",
          "type": "uint256"
        },
        {
          "internalType": "string",
          "name": "note",
          "type": "string"
        }
      ],
      "stateMutability": "view",
      "type": "function"
    },
    {
      "inputs": [
        {
          "internalType": "address",
          "name": "",
          "type": "address"
        }
      ],
      "name": "userMap",
      "outputs": [
        {
          "internalType": "address",
          "name": "walletAddress",
          "type": "address"
        },
        {
          "internalType": "string",
          "name": "userName",
          "type": "string"
        },
        {
          "internalType": "string",
          "name": "twitterHandle",
          "type": "string"
        }
      ],
      "stateMutability": "view",
      "type": "function"
    },
    {
      "inputs": [
        {
          "internalType": "address",
          "name": "_address",
          "type": "address"
        },
        {
          "internalType": "string",
          "name": "_user",
          "type": "string"
        },
        {
          "internalType": "string",
          "name": "_handle",
          "type": "string"
        }
      ],
      "name": "addUser",
      "outputs": [],
      "stateMutability": "nonpayable",
      "type": "function"
    },
    {
      "inputs": [
        {
          "internalType": "address",
          "name": "_senderAddress",
          "type": "address"
        },
        {
          "internalType": "address",
          "name": "_ReceiverAddress",
          "type": "address"
        },
        {
          "internalType": "uint256",
          "name": "_Amount",
          "type": "uint256"
        },
        {
          "internalType": "uint256",
          "name": "timestamp",
          "type": "uint256"
        },
        {
          "internalType": "string",
          "name": "_note",
          "type": "string"
        }
      ],
      "name": "addTxn",
      "outputs": [],
      "stateMutability": "nonpayable",
      "type": "function"
    },
    {
      "inputs": [
        {
          "internalType": "address",
          "name": "_address",
          "type": "address"
        }
      ],
      "name": "getUser",
      "outputs": [
        {
          "components": [
            {
              "internalType": "address",
              "name": "walletAddress",
              "type": "address"
            },
            {
              "internalType": "string",
              "name": "userName",
              "type": "string"
            },
            {
              "internalType": "string",
              "name": "twitterHandle",
              "type": "string"
            }
          ],
          "internalType": "struct Trasaction.userObject",
          "name": "",
          "type": "tuple"
        }
      ],
      "stateMutability": "view",
      "type": "function"
    },
    {
      "inputs": [
        {
          "internalType": "address",
          "name": "sender",
          "type": "address"
        },
        {
          "internalType": "address payable",
          "name": "_receiver",
          "type": "address"
        },
        {
          "internalType": "uint256",
          "name": "_amount",
          "type": "uint256"
        },
        {
          "internalType": "string",
          "name": "note",
          "type": "string"
        }
      ],
      "name": "sendTRX",
      "outputs": [],
      "stateMutability": "payable",
      "type": "function"
    },
    {
      "inputs": [],
      "name": "getTransactions",
      "outputs": [
        {
          "components": [
            {
              "internalType": "address",
              "name": "senderAddress",
              "type": "address"
            },
            {
              "internalType": "address",
              "name": "ReceiverAddress",
              "type": "address"
            },
            {
              "internalType": "uint256",
              "name": "Amount",
              "type": "uint256"
            },
            {
              "internalType": "uint256",
              "name": "timestamp",
              "type": "uint256"
            },
            {
              "internalType": "string",
              "name": "note",
              "type": "string"
            }
          ],
          "internalType": "struct Trasaction.transactionObject[]",
          "name": "",
          "type": "tuple[]"
        }
      ],
      "stateMutability": "view",
      "type": "function"
    }
  ],
  "bytecode": "0x608060405234801561001057600080fd5b50611451806100206000396000f3fe6080604052600436106100705760003560e01c806383920e901161004e57806383920e901461010d5780639d5228b114610138578063d7554a6814610161578063e598c3401461018a57610070565b80632bcc23f8146100755780632e9f7f57146100b45780636f77926b146100d0575b600080fd5b34801561008157600080fd5b5061009c60048036038101906100979190610bd7565b6101cb565b6040516100ab93929190610cac565b60405180910390f35b6100ce60048036038101906100c99190610e9a565b610325565b005b3480156100dc57600080fd5b506100f760048036038101906100f29190610bd7565b6103bc565b6040516101049190610fcd565b60405180910390f35b34801561011957600080fd5b5061012261058e565b60405161012f9190611136565b60405180910390f35b34801561014457600080fd5b5061015f600480360381019061015a9190611158565b61073f565b005b34801561016d57600080fd5b50610188600480360381019061018391906111ef565b610885565b005b34801561019657600080fd5b506101b160048036038101906101ac919061127a565b61097d565b6040516101c29594939291906112b6565b60405180910390f35b60006020528060005260406000206000915090508060000160009054906101000a900473ffffffffffffffffffffffffffffffffffffffff16908060010180546102149061133f565b80601f01602080910402602001604051908101604052809291908181526020018280546102409061133f565b801561028d5780601f106102625761010080835404028352916020019161028d565b820191906000526020600020905b81548152906001019060200180831161027057829003601f168201915b5050505050908060020180546102a29061133f565b80601f01602080910402602001604051908101604052809291908181526020018280546102ce9061133f565b801561031b5780601f106102f05761010080835404028352916020019161031b565b820191906000526020600020905b8154815290600101906020018083116102fe57829003601f168201915b5050505050905083565b8273ffffffffffffffffffffffffffffffffffffffff166108fc839081150290604051600060405180830381858888f1935050505015801561036b573d6000803e3d6000fd5b50610379848484428561073f565b7f1d30d3db8e01fa0d5626c471596f822f597e720c26a2930ef20d3387313c3d78848483426040516103ae94939291906113cf565b60405180910390a150505050565b6103c4610a8b565b6000808373ffffffffffffffffffffffffffffffffffffffff1673ffffffffffffffffffffffffffffffffffffffff1681526020019081526020016000206040518060600160405290816000820160009054906101000a900473ffffffffffffffffffffffffffffffffffffffff1673ffffffffffffffffffffffffffffffffffffffff1673ffffffffffffffffffffffffffffffffffffffff1681526020016001820180546104739061133f565b80601f016020809104026020016040519081016040528092919081815260200182805461049f9061133f565b80156104ec5780601f106104c1576101008083540402835291602001916104ec565b820191906000526020600020905b8154815290600101906020018083116104cf57829003601f168201915b505050505081526020016002820180546105059061133f565b80601f01602080910402602001604051908101604052809291908181526020018280546105319061133f565b801561057e5780601f106105535761010080835404028352916020019161057e565b820191906000526020600020905b81548152906001019060200180831161056157829003601f168201915b5050505050815250509050919050565b60606001805480602002602001604051908101604052809291908181526020016000905b8282101561073657838290600052602060002090600502016040518060a00160405290816000820160009054906101000a900473ffffffffffffffffffffffffffffffffffffffff1673ffffffffffffffffffffffffffffffffffffffff1673ffffffffffffffffffffffffffffffffffffffff1681526020016001820160009054906101000a900473ffffffffffffffffffffffffffffffffffffffff1673ffffffffffffffffffffffffffffffffffffffff1673ffffffffffffffffffffffffffffffffffffffff16815260200160028201548152602001600382015481526020016004820180546106a59061133f565b80601f01602080910402602001604051908101604052809291908181526020018280546106d19061133f565b801561071e5780601f106106f35761010080835404028352916020019161071e565b820191906000526020600020905b81548152906001019060200180831161070157829003601f168201915b505050505081525050815260200190600101906105b2565b50505050905090565b60016040518060a001604052808773ffffffffffffffffffffffffffffffffffffffff1681526020018673ffffffffffffffffffffffffffffffffffffffff16815260200185815260200184815260200183815250908060018154018082558091505060019003906000526020600020906005020160009091909190915060008201518160000160006101000a81548173ffffffffffffffffffffffffffffffffffffffff021916908373ffffffffffffffffffffffffffffffffffffffff16021790555060208201518160010160006101000a81548173ffffffffffffffffffffffffffffffffffffffff021916908373ffffffffffffffffffffffffffffffffffffffff1602179055506040820151816002015560608201518160030155608082015181600401908051906020019061087b929190610ac2565b5050505050505050565b60405180606001604052808473ffffffffffffffffffffffffffffffffffffffff168152602001838152602001828152506000808573ffffffffffffffffffffffffffffffffffffffff1673ffffffffffffffffffffffffffffffffffffffff16815260200190815260200160002060008201518160000160006101000a81548173ffffffffffffffffffffffffffffffffffffffff021916908373ffffffffffffffffffffffffffffffffffffffff1602179055506020820151816001019080519060200190610957929190610ac2565b506040820151816002019080519060200190610974929190610ac2565b50905050505050565b6001818154811061098d57600080fd5b90600052602060002090600502016000915090508060000160009054906101000a900473ffffffffffffffffffffffffffffffffffffffff16908060010160009054906101000a900473ffffffffffffffffffffffffffffffffffffffff1690806002015490806003015490806004018054610a089061133f565b80601f0160208091040260200160405190810160405280929190818152602001828054610a349061133f565b8015610a815780601f10610a5657610100808354040283529160200191610a81565b820191906000526020600020905b815481529060010190602001808311610a6457829003601f168201915b5050505050905085565b6040518060600160405280600073ffffffffffffffffffffffffffffffffffffffff16815260200160608152602001606081525090565b828054610ace9061133f565b90600052602060002090601f016020900481019282610af05760008555610b37565b82601f10610b0957805160ff1916838001178555610b37565b82800160010185558215610b37579182015b82811115610b36578251825591602001919060010190610b1b565b5b509050610b449190610b48565b5090565b5b80821115610b61576000816000905550600101610b49565b5090565b6000604051905090565b600080fd5b600080fd5b600073ffffffffffffffffffffffffffffffffffffffff82169050919050565b6000610ba482610b79565b9050919050565b610bb481610b99565b8114610bbf57600080fd5b50565b600081359050610bd181610bab565b92915050565b600060208284031215610bed57610bec610b6f565b5b6000610bfb84828501610bc2565b91505092915050565b610c0d81610b99565b82525050565b600081519050919050565b600082825260208201905092915050565b60005b83811015610c4d578082015181840152602081019050610c32565b83811115610c5c576000848401525b50505050565b6000601f19601f8301169050919050565b6000610c7e82610c13565b610c888185610c1e565b9350610c98818560208601610c2f565b610ca181610c62565b840191505092915050565b6000606082019050610cc16000830186610c04565b8181036020830152610cd38185610c73565b90508181036040830152610ce78184610c73565b9050949350505050565b6000610cfc82610b79565b9050919050565b610d0c81610cf1565b8114610d1757600080fd5b50565b600081359050610d2981610d03565b92915050565b6000819050919050565b610d4281610d2f565b8114610d4d57600080fd5b50565b600081359050610d5f81610d39565b92915050565b600080fd5b600080fd5b7f4e487b7100000000000000000000000000000000000000000000000000000000600052604160045260246000fd5b610da782610c62565b810181811067ffffffffffffffff82111715610dc657610dc5610d6f565b5b80604052505050565b6000610dd9610b65565b9050610de58282610d9e565b919050565b600067ffffffffffffffff821115610e0557610e04610d6f565b5b610e0e82610c62565b9050602081019050919050565b82818337600083830152505050565b6000610e3d610e3884610dea565b610dcf565b905082815260208101848484011115610e5957610e58610d6a565b5b610e64848285610e1b565b509392505050565b600082601f830112610e8157610e80610d65565b5b8135610e91848260208601610e2a565b91505092915050565b60008060008060808587031215610eb457610eb3610b6f565b5b6000610ec287828801610bc2565b9450506020610ed387828801610d1a565b9350506040610ee487828801610d50565b925050606085013567ffffffffffffffff811115610f0557610f04610b74565b5b610f1187828801610e6c565b91505092959194509250565b610f2681610b99565b82525050565b600082825260208201905092915050565b6000610f4882610c13565b610f528185610f2c565b9350610f62818560208601610c2f565b610f6b81610c62565b840191505092915050565b6000606083016000830151610f8e6000860182610f1d565b5060208301518482036020860152610fa68282610f3d565b91505060408301518482036040860152610fc08282610f3d565b9150508091505092915050565b60006020820190508181036000830152610fe78184610f76565b905092915050565b600081519050919050565b600082825260208201905092915050565b6000819050602082019050919050565b61102481610d2f565b82525050565b600060a0830160008301516110426000860182610f1d565b5060208301516110556020860182610f1d565b506040830151611068604086018261101b565b50606083015161107b606086018261101b565b50608083015184820360808601526110938282610f3d565b9150508091505092915050565b60006110ac838361102a565b905092915050565b6000602082019050919050565b60006110cc82610fef565b6110d68185610ffa565b9350836020820285016110e88561100b565b8060005b85811015611124578484038952815161110585826110a0565b9450611110836110b4565b925060208a019950506001810190506110ec565b50829750879550505050505092915050565b6000602082019050818103600083015261115081846110c1565b905092915050565b600080600080600060a0868803121561117457611173610b6f565b5b600061118288828901610bc2565b955050602061119388828901610bc2565b94505060406111a488828901610d50565b93505060606111b588828901610d50565b925050608086013567ffffffffffffffff8111156111d6576111d5610b74565b5b6111e288828901610e6c565b9150509295509295909350565b60008060006060848603121561120857611207610b6f565b5b600061121686828701610bc2565b935050602084013567ffffffffffffffff81111561123757611236610b74565b5b61124386828701610e6c565b925050604084013567ffffffffffffffff81111561126457611263610b74565b5b61127086828701610e6c565b9150509250925092565b6000602082840312156112905761128f610b6f565b5b600061129e84828501610d50565b91505092915050565b6112b081610d2f565b82525050565b600060a0820190506112cb6000830188610c04565b6112d86020830187610c04565b6112e560408301866112a7565b6112f260608301856112a7565b81810360808301526113048184610c73565b90509695505050505050565b7f4e487b7100000000000000000000000000000000000000000000000000000000600052602260045260246000fd5b6000600282049050600182168061135757607f821691505b60208210810361136a57611369611310565b5b50919050565b6000819050919050565b600061139561139061138b84610b79565b611370565b610b79565b9050919050565b60006113a78261137a565b9050919050565b60006113b98261139c565b9050919050565b6113c9816113ae565b82525050565b60006080820190506113e46000830187610c04565b6113f160208301866113c0565b81810360408301526114038185610c73565b905061141260608301846112a7565b9594505050505056fea2646970667358221220fe389d501b81f0a429bd7e30ad66ebbab51cd63266af79c2c95ebf1cf0062f8764736f6c634300080e0033",
  "immutableReferences": {},
  "source": "//SPDX-License-Identifier: Unlicense\npragma solidity ^0.8.0;\n\n// import \"hardhat/console.sol\";\n\ncontract Trasaction {\n    //transfer events\n    event Transfer(address from, address to, string note, uint timestamp);\n\n    //user object\n    struct userObject {\n        address walletAddress;\n        string userName;\n        string twitterHandle;\n    }\n    //transaction object\n    struct transactionObject {\n        address senderAddress;\n        address ReceiverAddress;\n        uint256 Amount;\n        uint256 timestamp;\n        string note;\n    }\n\n    //users map\n    mapping(address => userObject) public userMap;\n\n    //transactions\n    transactionObject[] public transactionsList;\n\n    // adding user on connection with twitter\n    function addUser(\n        address _address,\n        string memory _user,\n        string memory _handle\n    ) public {\n        userMap[_address] = userObject(_address, _user, _handle);\n    }\n\n    //adding txn\n    function addTxn(\n        address _senderAddress,\n        address _ReceiverAddress,\n        uint256 _Amount,\n        uint256 timestamp,\n        string memory _note\n    ) public {\n        transactionsList.push(\n            transactionObject(_senderAddress, _ReceiverAddress, _Amount, timestamp, _note )\n        );\n    }\n\n    // get a particular user on login\n    function getUser(address _address) public view returns (userObject memory) {\n        return userMap[_address];\n    }\n\n    //send payment\n    function sendTRX(address sender, address payable _receiver, uint256 _amount, string memory note)\n        public\n        payable\n    {\n        _receiver.transfer(_amount);\n        addTxn(sender, _receiver, _amount, block.timestamp, note);\n        emit Transfer(sender, _receiver, note, block.timestamp);\n    }\n\n    //get transactions\n    function getTransactions()\n        public\n        view\n        returns (transactionObject[] memory)\n    {\n        return transactionsList;\n    }\n}\n",
  "sourcePath": "/home/mumeen/Documents/hackathon/truf/contracts/social.sol",
  "compiler": {
    "name": "solc",
    "version": "0.8.14+commit.80d49f37.Emscripten.clang"
  },
  "schemaVersion": "3.4.7",
  "updatedAt": "2022-06-14T11:39:06.867Z",
  "devdoc": {
    "kind": "dev",
    "methods": {},
    "version": 1
  },
  "userdoc": {
    "kind": "user",
    "methods": {},
    "version": 1
  }
}