{
  "contractName": "Trasaction",
  "abi": [
    {
      "anonymous": false,
      "inputs": [
        {
          "indexed": false,
          "internalType": "address",
          "name": "from",
          "type": "address"
        },
        {
          "indexed": false,
          "internalType": "address",
          "name": "to",
          "type": "address"
        },
        {
          "indexed": false,
          "internalType": "string",
          "name": "note",
          "type": "string"
        },
        {
          "indexed": false,
          "internalType": "uint256",
          "name": "timestamp",
          "type": "uint256"
        }
      ],
      "name": "Transfer",
      "type": "event"
    },
    {
      "stateMutability": "payable",
      "type": "fallback"
    },
    {
      "inputs": [
        {
          "internalType": "uint256",
          "name": "",
          "type": "uint256"
        }
      ],
      "name": "userArray",
      "outputs": [
        {
          "internalType": "address",
          "name": "walletAddress",
          "type": "address"
        },
        {
          "internalType": "string",
          "name": "userName",
          "type": "string"
        },
        {
          "internalType": "string",
          "name": "twitterHandle",
          "type": "string"
        },
        {
          "internalType": "string",
          "name": "emailAddress",
          "type": "string"
        },
        {
          "internalType": "string",
          "name": "profileImg",
          "type": "string"
        }
      ],
      "stateMutability": "view",
      "type": "function"
    },
    {
      "inputs": [
        {
          "internalType": "address",
          "name": "",
          "type": "address"
        }
      ],
      "name": "userMap",
      "outputs": [
        {
          "internalType": "address",
          "name": "walletAddress",
          "type": "address"
        },
        {
          "internalType": "string",
          "name": "userName",
          "type": "string"
        },
        {
          "internalType": "string",
          "name": "twitterHandle",
          "type": "string"
        },
        {
          "internalType": "string",
          "name": "emailAddress",
          "type": "string"
        },
        {
          "internalType": "string",
          "name": "profileImg",
          "type": "string"
        }
      ],
      "stateMutability": "view",
      "type": "function"
    },
    {
      "stateMutability": "payable",
      "type": "receive"
    },
    {
      "inputs": [
        {
          "internalType": "address",
          "name": "_address",
          "type": "address"
        },
        {
          "internalType": "string",
          "name": "_user",
          "type": "string"
        },
        {
          "internalType": "string",
          "name": "_handle",
          "type": "string"
        },
        {
          "internalType": "string",
          "name": "_email",
          "type": "string"
        },
        {
          "internalType": "string",
          "name": "image",
          "type": "string"
        }
      ],
      "name": "addUser",
      "outputs": [],
      "stateMutability": "nonpayable",
      "type": "function"
    },
    {
      "inputs": [
        {
          "internalType": "address",
          "name": "_address",
          "type": "address"
        },
        {
          "internalType": "string",
          "name": "image",
          "type": "string"
        }
      ],
      "name": "editProfileImage",
      "outputs": [],
      "stateMutability": "nonpayable",
      "type": "function"
    },
    {
      "inputs": [
        {
          "internalType": "address",
          "name": "_address",
          "type": "address"
        }
      ],
      "name": "getUser",
      "outputs": [
        {
          "components": [
            {
              "internalType": "address",
              "name": "walletAddress",
              "type": "address"
            },
            {
              "internalType": "string",
              "name": "userName",
              "type": "string"
            },
            {
              "internalType": "string",
              "name": "twitterHandle",
              "type": "string"
            },
            {
              "internalType": "string",
              "name": "emailAddress",
              "type": "string"
            },
            {
              "internalType": "string",
              "name": "profileImg",
              "type": "string"
            }
          ],
          "internalType": "struct Trasaction.userObject",
          "name": "",
          "type": "tuple"
        }
      ],
      "stateMutability": "view",
      "type": "function"
    },
    {
      "inputs": [],
      "name": "getUserMap",
      "outputs": [
        {
          "components": [
            {
              "internalType": "address",
              "name": "walletAddress",
              "type": "address"
            },
            {
              "internalType": "string",
              "name": "userName",
              "type": "string"
            },
            {
              "internalType": "string",
              "name": "twitterHandle",
              "type": "string"
            },
            {
              "internalType": "string",
              "name": "emailAddress",
              "type": "string"
            },
            {
              "internalType": "string",
              "name": "profileImg",
              "type": "string"
            }
          ],
          "internalType": "struct Trasaction.userObject[]",
          "name": "",
          "type": "tuple[]"
        }
      ],
      "stateMutability": "view",
      "type": "function"
    },
    {
      "inputs": [
        {
          "internalType": "address",
          "name": "sender",
          "type": "address"
        },
        {
          "internalType": "address payable",
          "name": "_receiver",
          "type": "address"
        },
        {
          "internalType": "uint256",
          "name": "_amount",
          "type": "uint256"
        },
        {
          "internalType": "string",
          "name": "note",
          "type": "string"
        },
        {
          "internalType": "string",
          "name": "asset",
          "type": "string"
        }
      ],
      "name": "sendTRX",
      "outputs": [],
      "stateMutability": "payable",
      "type": "function"
    },
    {
      "inputs": [
        {
          "internalType": "address payable",
          "name": "reciever",
          "type": "address"
        },
        {
          "internalType": "uint256",
          "name": "id",
          "type": "uint256"
        },
        {
          "internalType": "uint256",
          "name": "amt",
          "type": "uint256"
        }
      ],
      "name": "claimTxn",
      "outputs": [],
      "stateMutability": "payable",
      "type": "function"
    },
    {
      "inputs": [
        {
          "internalType": "address payable",
          "name": "reciever",
          "type": "address"
        },
        {
          "internalType": "address payable",
          "name": "sender",
          "type": "address"
        },
        {
          "internalType": "uint256",
          "name": "id",
          "type": "uint256"
        },
        {
          "internalType": "uint256",
          "name": "amt",
          "type": "uint256"
        }
      ],
      "name": "undoTxn",
      "outputs": [],
      "stateMutability": "payable",
      "type": "function"
    }
  ],
  "bytecode": "0x608060405234801561001057600080fd5b506126ff806100206000396000f3fe60806040526004361061008a5760003560e01c80637b841a15116100595780637b841a151461017d57806393cd6146146101995780639a8a8c32146101b5578063a0c508c6146101de578063cd274a40146101fa57610091565b80632bcc23f81461009357806341209af1146100d45780634a12c74a146101155780636f77926b1461014057610091565b3661009157005b005b34801561009f57600080fd5b506100ba60048036038101906100b59190611a2d565b610223565b6040516100cb959493929190611b02565b60405180910390f35b3480156100e057600080fd5b506100fb60048036038101906100f69190611ba7565b610499565b60405161010c959493929190611b02565b60405180910390f35b34801561012157600080fd5b5061012a61071f565b6040516101379190611d7a565b60405180910390f35b34801561014c57600080fd5b5061016760048036038101906101629190611a2d565b610a22565b6040516101749190611e27565b60405180910390f35b61019760048036038101906101929190611eec565b610d1f565b005b6101b360048036038101906101ae9190611fa8565b610dbd565b005b3480156101c157600080fd5b506101dc60048036038101906101d79190611ffb565b610f6b565b005b6101f860048036038101906101f3919061205b565b611092565b005b34801561020657600080fd5b50610221600480360381019061021c91906121f2565b611241565b005b60036020528060005260406000206000915090508060000160009054906101000a900473ffffffffffffffffffffffffffffffffffffffff169080600101805461026c9061230c565b80601f01602080910402602001604051908101604052809291908181526020018280546102989061230c565b80156102e55780601f106102ba576101008083540402835291602001916102e5565b820191906000526020600020905b8154815290600101906020018083116102c857829003601f168201915b5050505050908060020180546102fa9061230c565b80601f01602080910402602001604051908101604052809291908181526020018280546103269061230c565b80156103735780601f1061034857610100808354040283529160200191610373565b820191906000526020600020905b81548152906001019060200180831161035657829003601f168201915b5050505050908060030180546103889061230c565b80601f01602080910402602001604051908101604052809291908181526020018280546103b49061230c565b80156104015780601f106103d657610100808354040283529160200191610401565b820191906000526020600020905b8154815290600101906020018083116103e457829003601f168201915b5050505050908060040180546104169061230c565b80601f01602080910402602001604051908101604052809291908181526020018280546104429061230c565b801561048f5780601f106104645761010080835404028352916020019161048f565b820191906000526020600020905b81548152906001019060200180831161047257829003601f168201915b5050505050905085565b600281815481106104a957600080fd5b90600052602060002090600502016000915090508060000160009054906101000a900473ffffffffffffffffffffffffffffffffffffffff16908060010180546104f29061230c565b80601f016020809104026020016040519081016040528092919081815260200182805461051e9061230c565b801561056b5780601f106105405761010080835404028352916020019161056b565b820191906000526020600020905b81548152906001019060200180831161054e57829003601f168201915b5050505050908060020180546105809061230c565b80601f01602080910402602001604051908101604052809291908181526020018280546105ac9061230c565b80156105f95780601f106105ce576101008083540402835291602001916105f9565b820191906000526020600020905b8154815290600101906020018083116105dc57829003601f168201915b50505050509080600301805461060e9061230c565b80601f016020809104026020016040519081016040528092919081815260200182805461063a9061230c565b80156106875780601f1061065c57610100808354040283529160200191610687565b820191906000526020600020905b81548152906001019060200180831161066a57829003601f168201915b50505050509080600401805461069c9061230c565b80601f01602080910402602001604051908101604052809291908181526020018280546106c89061230c565b80156107155780601f106106ea57610100808354040283529160200191610715565b820191906000526020600020905b8154815290600101906020018083116106f857829003601f168201915b5050505050905085565b606060006002805480602002602001604051908101604052809291908181526020016000905b82821015610a1557838290600052602060002090600502016040518060a00160405290816000820160009054906101000a900473ffffffffffffffffffffffffffffffffffffffff1673ffffffffffffffffffffffffffffffffffffffff1673ffffffffffffffffffffffffffffffffffffffff1681526020016001820180546107ce9061230c565b80601f01602080910402602001604051908101604052809291908181526020018280546107fa9061230c565b80156108475780601f1061081c57610100808354040283529160200191610847565b820191906000526020600020905b81548152906001019060200180831161082a57829003601f168201915b505050505081526020016002820180546108609061230c565b80601f016020809104026020016040519081016040528092919081815260200182805461088c9061230c565b80156108d95780601f106108ae576101008083540402835291602001916108d9565b820191906000526020600020905b8154815290600101906020018083116108bc57829003601f168201915b505050505081526020016003820180546108f29061230c565b80601f016020809104026020016040519081016040528092919081815260200182805461091e9061230c565b801561096b5780601f106109405761010080835404028352916020019161096b565b820191906000526020600020905b81548152906001019060200180831161094e57829003601f168201915b505050505081526020016004820180546109849061230c565b80601f01602080910402602001604051908101604052809291908181526020018280546109b09061230c565b80156109fd5780601f106109d2576101008083540402835291602001916109fd565b820191906000526020600020905b8154815290600101906020018083116109e057829003601f168201915b50505050508152505081526020019060010190610745565b5050505090508091505090565b610a2a61184d565b6000600360008473ffffffffffffffffffffffffffffffffffffffff1673ffffffffffffffffffffffffffffffffffffffff1681526020019081526020016000206040518060a00160405290816000820160009054906101000a900473ffffffffffffffffffffffffffffffffffffffff1673ffffffffffffffffffffffffffffffffffffffff1673ffffffffffffffffffffffffffffffffffffffff168152602001600182018054610adc9061230c565b80601f0160208091040260200160405190810160405280929190818152602001828054610b089061230c565b8015610b555780601f10610b2a57610100808354040283529160200191610b55565b820191906000526020600020905b815481529060010190602001808311610b3857829003601f168201915b50505050508152602001600282018054610b6e9061230c565b80601f0160208091040260200160405190810160405280929190818152602001828054610b9a9061230c565b8015610be75780601f10610bbc57610100808354040283529160200191610be7565b820191906000526020600020905b815481529060010190602001808311610bca57829003601f168201915b50505050508152602001600382018054610c009061230c565b80601f0160208091040260200160405190810160405280929190818152602001828054610c2c9061230c565b8015610c795780601f10610c4e57610100808354040283529160200191610c79565b820191906000526020600020905b815481529060010190602001808311610c5c57829003601f168201915b50505050508152602001600482018054610c929061230c565b80601f0160208091040260200160405190810160405280929190818152602001828054610cbe9061230c565b8015610d0b5780601f10610ce057610100808354040283529160200191610d0b565b820191906000526020600020905b815481529060010190602001808311610cee57829003601f168201915b505050505081525050905080915050919050565b3073ffffffffffffffffffffffffffffffffffffffff166108fc869081150290604051600060405180830381858888f19350505050158015610d65573d6000803e3d6000fd5b50610d758787878787878761157d565b7f1d30d3db8e01fa0d5626c471596f822f597e720c26a2930ef20d3387313c3d788787868642604051610dac9594939291906123d8565b60405180910390a150505050505050565b3373ffffffffffffffffffffffffffffffffffffffff1660048381548110610de857610de7612426565b5b906000526020600020906009020160030160009054906101000a900473ffffffffffffffffffffffffffffffffffffffff1673ffffffffffffffffffffffffffffffffffffffff16148015610eaa5750604051602001610e47906124ac565b6040516020818303038152906040528051906020012060048381548110610e7157610e70612426565b5b9060005260206000209060090201600101604051602001610e929190612555565b60405160208183030381529060405280519060200120145b15610f66578273ffffffffffffffffffffffffffffffffffffffff166108fc829081150290604051600060405180830381858888f19350505050158015610ef5573d6000803e3d6000fd5b506040518060400160405280600981526020017f636f6d706c65746564000000000000000000000000000000000000000000000081525060048381548110610f4057610f3f612426565b5b90600052602060002090600902016001019080519060200190610f64929190611892565b505b505050565b3373ffffffffffffffffffffffffffffffffffffffff16600360008573ffffffffffffffffffffffffffffffffffffffff1673ffffffffffffffffffffffffffffffffffffffff16815260200190815260200160002060000160009054906101000a900473ffffffffffffffffffffffffffffffffffffffff1673ffffffffffffffffffffffffffffffffffffffff161461103b576040517f08c379a0000000000000000000000000000000000000000000000000000000008152600401611032906125b8565b60405180910390fd5b8181600360008673ffffffffffffffffffffffffffffffffffffffff1673ffffffffffffffffffffffffffffffffffffffff168152602001908152602001600020600401919061108c929190611918565b50505050565b3373ffffffffffffffffffffffffffffffffffffffff16600483815481106110bd576110bc612426565b5b906000526020600020906009020160020160009054906101000a900473ffffffffffffffffffffffffffffffffffffffff1673ffffffffffffffffffffffffffffffffffffffff1614801561117f575060405160200161111c906124ac565b604051602081830303815290604052805190602001206004838154811061114657611145612426565b5b90600052602060002090600902016001016040516020016111679190612555565b60405160208183030381529060405280519060200120145b1561123b578273ffffffffffffffffffffffffffffffffffffffff166108fc829081150290604051600060405180830381858888f193505050501580156111ca573d6000803e3d6000fd5b506040518060400160405280600981526020017f636f6d706c6574656400000000000000000000000000000000000000000000008152506004838154811061121557611214612426565b5b90600052602060002090600902016001019080519060200190611239929190611892565b505b50505050565b8473ffffffffffffffffffffffffffffffffffffffff16600360008773ffffffffffffffffffffffffffffffffffffffff1673ffffffffffffffffffffffffffffffffffffffff16815260200190815260200160002060000160009054906101000a900473ffffffffffffffffffffffffffffffffffffffff1673ffffffffffffffffffffffffffffffffffffffff1603611311576040517f08c379a000000000000000000000000000000000000000000000000000000000815260040161130890612624565b60405180910390fd5b60006040518060a001604052808773ffffffffffffffffffffffffffffffffffffffff168152602001868152602001858152602001848152602001838152509050600281908060018154018082558091505060019003906000526020600020906005020160009091909190915060008201518160000160006101000a81548173ffffffffffffffffffffffffffffffffffffffff021916908373ffffffffffffffffffffffffffffffffffffffff16021790555060208201518160010190805190602001906113e1929190611892565b5060408201518160020190805190602001906113fe929190611892565b50606082015181600301908051906020019061141b929190611892565b506080820151816004019080519060200190611438929190611892565b5050506040518060a001604052808773ffffffffffffffffffffffffffffffffffffffff16815260200186815260200185815260200184815260200183815250600360008873ffffffffffffffffffffffffffffffffffffffff1673ffffffffffffffffffffffffffffffffffffffff16815260200190815260200160002060008201518160000160006101000a81548173ffffffffffffffffffffffffffffffffffffffff021916908373ffffffffffffffffffffffffffffffffffffffff160217905550602082015181600101908051906020019061151a929190611892565b506040820151816002019080519060200190611537929190611892565b506060820151816003019080519060200190611554929190611892565b506080820151816004019080519060200190611571929190611892565b50905050505050505050565b600160008082825461158f9190612673565b92505081905550600460405180610120016040528060005481526020016040518060400160405280600781526020017f70656e64696e670000000000000000000000000000000000000000000000000081525081526020018973ffffffffffffffffffffffffffffffffffffffff1681526020018873ffffffffffffffffffffffffffffffffffffffff16815260200187815260200142815260200186868080601f016020809104026020016040519081016040528093929190818152602001838380828437600081840152601f19601f82011690508083019250505050505050815260200184848080601f016020809104026020016040519081016040528093929190818152602001838380828437600081840152601f19601f8201169050808301925050505050505081526020016040518060400160405280600381526020017f6f757400000000000000000000000000000000000000000000000000000000008152508152509080600181540180825580915050600190039060005260206000209060090201600090919091909150600082015181600001556020820151816001019080519060200190611747929190611892565b5060408201518160020160006101000a81548173ffffffffffffffffffffffffffffffffffffffff021916908373ffffffffffffffffffffffffffffffffffffffff16021790555060608201518160030160006101000a81548173ffffffffffffffffffffffffffffffffffffffff021916908373ffffffffffffffffffffffffffffffffffffffff1602179055506080820151816004015560a0820151816005015560c0820151816006019080519060200190611806929190611892565b5060e0820151816007019080519060200190611823929190611892565b50610100820151816008019080519060200190611841929190611892565b50505050505050505050565b6040518060a00160405280600073ffffffffffffffffffffffffffffffffffffffff168152602001606081526020016060815260200160608152602001606081525090565b82805461189e9061230c565b90600052602060002090601f0160209004810192826118c05760008555611907565b82601f106118d957805160ff1916838001178555611907565b82800160010185558215611907579182015b828111156119065782518255916020019190600101906118eb565b5b509050611914919061199e565b5090565b8280546119249061230c565b90600052602060002090601f016020900481019282611946576000855561198d565b82601f1061195f57803560ff191683800117855561198d565b8280016001018555821561198d579182015b8281111561198c578235825591602001919060010190611971565b5b50905061199a919061199e565b5090565b5b808211156119b757600081600090555060010161199f565b5090565b6000604051905090565b600080fd5b600080fd5b600073ffffffffffffffffffffffffffffffffffffffff82169050919050565b60006119fa826119cf565b9050919050565b611a0a816119ef565b8114611a1557600080fd5b50565b600081359050611a2781611a01565b92915050565b600060208284031215611a4357611a426119c5565b5b6000611a5184828501611a18565b91505092915050565b611a63816119ef565b82525050565b600081519050919050565b600082825260208201905092915050565b60005b83811015611aa3578082015181840152602081019050611a88565b83811115611ab2576000848401525b50505050565b6000601f19601f8301169050919050565b6000611ad482611a69565b611ade8185611a74565b9350611aee818560208601611a85565b611af781611ab8565b840191505092915050565b600060a082019050611b176000830188611a5a565b8181036020830152611b298187611ac9565b90508181036040830152611b3d8186611ac9565b90508181036060830152611b518185611ac9565b90508181036080830152611b658184611ac9565b90509695505050505050565b6000819050919050565b611b8481611b71565b8114611b8f57600080fd5b50565b600081359050611ba181611b7b565b92915050565b600060208284031215611bbd57611bbc6119c5565b5b6000611bcb84828501611b92565b91505092915050565b600081519050919050565b600082825260208201905092915050565b6000819050602082019050919050565b611c09816119ef565b82525050565b600082825260208201905092915050565b6000611c2b82611a69565b611c358185611c0f565b9350611c45818560208601611a85565b611c4e81611ab8565b840191505092915050565b600060a083016000830151611c716000860182611c00565b5060208301518482036020860152611c898282611c20565b91505060408301518482036040860152611ca38282611c20565b91505060608301518482036060860152611cbd8282611c20565b91505060808301518482036080860152611cd78282611c20565b9150508091505092915050565b6000611cf08383611c59565b905092915050565b6000602082019050919050565b6000611d1082611bd4565b611d1a8185611bdf565b935083602082028501611d2c85611bf0565b8060005b85811015611d685784840389528151611d498582611ce4565b9450611d5483611cf8565b925060208a01995050600181019050611d30565b50829750879550505050505092915050565b60006020820190508181036000830152611d948184611d05565b905092915050565b600060a083016000830151611db46000860182611c00565b5060208301518482036020860152611dcc8282611c20565b91505060408301518482036040860152611de68282611c20565b91505060608301518482036060860152611e008282611c20565b91505060808301518482036080860152611e1a8282611c20565b9150508091505092915050565b60006020820190508181036000830152611e418184611d9c565b905092915050565b6000611e54826119cf565b9050919050565b611e6481611e49565b8114611e6f57600080fd5b50565b600081359050611e8181611e5b565b92915050565b600080fd5b600080fd5b600080fd5b60008083601f840112611eac57611eab611e87565b5b8235905067ffffffffffffffff811115611ec957611ec8611e8c565b5b602083019150836001820283011115611ee557611ee4611e91565b5b9250929050565b600080600080600080600060a0888a031215611f0b57611f0a6119c5565b5b6000611f198a828b01611a18565b9750506020611f2a8a828b01611e72565b9650506040611f3b8a828b01611b92565b955050606088013567ffffffffffffffff811115611f5c57611f5b6119ca565b5b611f688a828b01611e96565b9450945050608088013567ffffffffffffffff811115611f8b57611f8a6119ca565b5b611f978a828b01611e96565b925092505092959891949750929550565b600080600060608486031215611fc157611fc06119c5565b5b6000611fcf86828701611e72565b9350506020611fe086828701611b92565b9250506040611ff186828701611b92565b9150509250925092565b600080600060408486031215612014576120136119c5565b5b600061202286828701611a18565b935050602084013567ffffffffffffffff811115612043576120426119ca565b5b61204f86828701611e96565b92509250509250925092565b60008060008060808587031215612075576120746119c5565b5b600061208387828801611e72565b945050602061209487828801611e72565b93505060406120a587828801611b92565b92505060606120b687828801611b92565b91505092959194509250565b600080fd5b7f4e487b7100000000000000000000000000000000000000000000000000000000600052604160045260246000fd5b6120ff82611ab8565b810181811067ffffffffffffffff8211171561211e5761211d6120c7565b5b80604052505050565b60006121316119bb565b905061213d82826120f6565b919050565b600067ffffffffffffffff82111561215d5761215c6120c7565b5b61216682611ab8565b9050602081019050919050565b82818337600083830152505050565b600061219561219084612142565b612127565b9050828152602081018484840111156121b1576121b06120c2565b5b6121bc848285612173565b509392505050565b600082601f8301126121d9576121d8611e87565b5b81356121e9848260208601612182565b91505092915050565b600080600080600060a0868803121561220e5761220d6119c5565b5b600061221c88828901611a18565b955050602086013567ffffffffffffffff81111561223d5761223c6119ca565b5b612249888289016121c4565b945050604086013567ffffffffffffffff81111561226a576122696119ca565b5b612276888289016121c4565b935050606086013567ffffffffffffffff811115612297576122966119ca565b5b6122a3888289016121c4565b925050608086013567ffffffffffffffff8111156122c4576122c36119ca565b5b6122d0888289016121c4565b9150509295509295909350565b7f4e487b7100000000000000000000000000000000000000000000000000000000600052602260045260246000fd5b6000600282049050600182168061232457607f821691505b602082108103612337576123366122dd565b5b50919050565b6000819050919050565b600061236261235d612358846119cf565b61233d565b6119cf565b9050919050565b600061237482612347565b9050919050565b600061238682612369565b9050919050565b6123968161237b565b82525050565b60006123a88385611a74565b93506123b5838584612173565b6123be83611ab8565b840190509392505050565b6123d281611b71565b82525050565b60006080820190506123ed6000830188611a5a565b6123fa602083018761238d565b818103604083015261240d81858761239c565b905061241c60608301846123c9565b9695505050505050565b7f4e487b7100000000000000000000000000000000000000000000000000000000600052603260045260246000fd5b600081905092915050565b7f70656e64696e6700000000000000000000000000000000000000000000000000600082015250565b6000612496600783612455565b91506124a182612460565b600782019050919050565b60006124b782612489565b9150819050919050565b60008190508160005260206000209050919050565b600081546124e38161230c565b6124ed8186612455565b9450600182166000811461250857600181146125195761254c565b60ff1983168652818601935061254c565b612522856124c1565b60005b8381101561254457815481890152600182019150602081019050612525565b838801955050505b50505092915050565b600061256182846124d6565b915081905092915050565b7f4e6f74207265616c207573657200000000000000000000000000000000000000600082015250565b60006125a2600d83611a74565b91506125ad8261256c565b602082019050919050565b600060208201905081810360008301526125d181612595565b9050919050565b7f5573657220457869737473000000000000000000000000000000000000000000600082015250565b600061260e600b83611a74565b9150612619826125d8565b602082019050919050565b6000602082019050818103600083015261263d81612601565b9050919050565b7f4e487b7100000000000000000000000000000000000000000000000000000000600052601160045260246000fd5b600061267e82611b71565b915061268983611b71565b9250827fffffffffffffffffffffffffffffffffffffffffffffffffffffffffffffffff038211156126be576126bd612644565b5b82820190509291505056fea2646970667358221220c9c9ffe4fe92df64535f7c37615a02c604f2e2b602e06563e8863cebf7ecd88a64736f6c634300080e0033",
  "immutableReferences": {},
  "source": "//SPDX-License-Identifier: Unlicense\npragma solidity ^0.8.0;\n\ncontract Trasaction {\n    //transfer events\n    // Function to receive Ether. msg.data must be empty\n    receive() external payable {}\n\n    // Fallback function is called when msg.data is not empty\n    fallback() external payable {}\n\n    event Transfer(address from, address to, string note, uint256 timestamp);\n\n    uint256 txnCounter;\n\n    //transaction object\n    struct transactionObject {\n        address senderAddress;\n        address ReceiverAddress;\n        uint256 Amount;\n        uint256 timestamp;\n        string note;\n        string asset;\n    }\n\n    //transaction object\n    struct userTransaction {\n        uint256 id;\n        string status;\n        address senderAddress;\n        address ReceiverAddress;\n        uint256 Amount;\n        uint256 timestamp;\n        string note;\n        string asset;\n        string direction;\n    }\n    userTransaction[] txArray;\n\n    //user object\n    struct userObject {\n        address walletAddress;\n        string userName;\n        string twitterHandle;\n        string emailAddress;\n        string profileImg;\n    }\n\n    //users map\n    userObject[] public userArray;\n    mapping(address => userObject) public userMap;\n\n    // //transactions\n    userTransaction[] transactionsList;\n\n    // adding user on connection with Email\n    function addUser(\n        address _address,\n        string memory _user,\n        string memory _handle,\n        string memory _email,\n        string memory image\n    ) public {\n        require(userMap[_address].walletAddress != _address, \"User Exists\");\n\n        userObject memory user = userObject(\n            _address,\n            _user,\n            _handle,\n            _email,\n            image\n        );\n        userArray.push(user);\n        userMap[_address] = userObject(_address, _user, _handle, _email, image);\n    }\n\n    //edit profile picture\n    function editProfileImage(address _address, string calldata image) public {\n        require(userMap[_address].walletAddress == msg.sender, \"Not real user\");\n        userMap[_address].profileImg = image;\n    }\n\n    //adding txn\n    function addTxn(\n        address _senderAddress,\n        address _ReceiverAddress,\n        uint256 _Amount,\n        string calldata _note,\n        string calldata asset\n    ) private {\n        txnCounter += 1;\n        transactionsList.push(\n            userTransaction(\n                txnCounter,\n                \"pending\",\n                _senderAddress,\n                _ReceiverAddress,\n                _Amount,\n                block.timestamp,\n                _note,\n                asset,\n                \"out\"\n            )\n        );\n        // userMap[_ReceiverAddress].transactions.push(\n        //     userTransaction(\n        //         txnCounter,\n        //         \"pending\",\n        //         _senderAddress,\n        //         _ReceiverAddress,\n        //         _Amount,\n        //         block.timestamp,\n        //         _note,\n        //         asset,\n        //         \"in\"\n        //     )\n        // );\n    }\n\n    // get a particular user on login\n    function getUser(address _address) public view returns (userObject memory) {\n        userObject memory user = userMap[_address];\n        return user;\n    }\n\n    //get users array\n    function getUserMap() public view returns (userObject[] memory) {\n        userObject[] memory user = userArray;\n        return user;\n    }\n\n    //send payment\n    function sendTRX(\n        address sender,\n        address payable _receiver,\n        uint256 _amount,\n        string calldata note,\n        string calldata asset\n    ) public payable {\n        payable(address(this)).transfer(_amount);\n        addTxn(sender, _receiver, _amount, note, asset);\n        emit Transfer(sender, _receiver, note, block.timestamp);\n    }\n\n    //get transactions\n    // function getTransactions()\n    //     public\n    //     view\n    //     returns (transactionObject[] memory)\n    // {\n    //     return transactionsList;\n    // }\n    // function getUserTxn(address acct)\n    //     public\n    //     view\n    //     returns (userTransaction[]  )\n    // {\n    //     userTransaction[] storage txn = userMap[acct].transactions;\n    //     return (txn);\n    // }\n\n    function claimTxn(\n        address payable reciever,\n        uint256 id,\n        uint256 amt\n    ) public payable {\n        if (\n            transactionsList[id].ReceiverAddress == msg.sender &&\n            keccak256(abi.encodePacked(transactionsList[id].status)) ==\n            keccak256(abi.encodePacked(\"pending\"))\n        ) {\n            reciever.transfer(amt);\n            transactionsList[id].status = \"completed\";\n        }\n    }\n\n    function undoTxn(\n        address payable reciever,\n        address payable sender,\n        uint256 id,\n        uint256 amt\n    ) public payable {\n        if (\n            transactionsList[id].senderAddress == msg.sender &&\n            keccak256(abi.encodePacked(transactionsList[id].status)) ==\n            keccak256(abi.encodePacked(\"pending\"))\n        ) {\n            sender.transfer(amt);\n            transactionsList[id].status = \"completed\";\n        }\n    }\n}\n",
  "sourcePath": "/home/mumeen/Documents/hackathons/hackathon/truf/contracts/social.sol",
  "compiler": {
    "name": "solc",
    "version": "0.8.14+commit.80d49f37.Emscripten.clang"
  },
  "schemaVersion": "3.4.7",
  "updatedAt": "2022-07-24T02:21:41.208Z",
  "devdoc": {
    "kind": "dev",
    "methods": {},
    "version": 1
  },
  "userdoc": {
    "kind": "user",
    "methods": {},
    "version": 1
  }
}